{
  "_format": "hh-sol-artifact-1",
  "contractName": "PUSDv3",
  "sourceName": "contracts/PUSDv3.sol",
  "abi": [
    {
      "inputs": [],
      "stateMutability": "nonpayable",
      "type": "constructor"
    },
    {
      "inputs": [
        {
          "internalType": "address",
          "name": "spender",
          "type": "address"
        },
        {
          "internalType": "uint256",
          "name": "allowance",
          "type": "uint256"
        },
        {
          "internalType": "uint256",
          "name": "needed",
          "type": "uint256"
        }
      ],
      "name": "ERC20InsufficientAllowance",
      "type": "error"
    },
    {
      "inputs": [
        {
          "internalType": "address",
          "name": "sender",
          "type": "address"
        },
        {
          "internalType": "uint256",
          "name": "balance",
          "type": "uint256"
        },
        {
          "internalType": "uint256",
          "name": "needed",
          "type": "uint256"
        }
      ],
      "name": "ERC20InsufficientBalance",
      "type": "error"
    },
    {
      "inputs": [
        {
          "internalType": "address",
          "name": "approver",
          "type": "address"
        }
      ],
      "name": "ERC20InvalidApprover",
      "type": "error"
    },
    {
      "inputs": [
        {
          "internalType": "address",
          "name": "receiver",
          "type": "address"
        }
      ],
      "name": "ERC20InvalidReceiver",
      "type": "error"
    },
    {
      "inputs": [
        {
          "internalType": "address",
          "name": "sender",
          "type": "address"
        }
      ],
      "name": "ERC20InvalidSender",
      "type": "error"
    },
    {
      "inputs": [
        {
          "internalType": "address",
          "name": "spender",
          "type": "address"
        }
      ],
      "name": "ERC20InvalidSpender",
      "type": "error"
    },
    {
      "inputs": [],
      "name": "EnforcedPause",
      "type": "error"
    },
    {
      "inputs": [],
      "name": "ExpectedPause",
      "type": "error"
    },
    {
      "inputs": [
        {
          "internalType": "address",
          "name": "owner",
          "type": "address"
        }
      ],
      "name": "OwnableInvalidOwner",
      "type": "error"
    },
    {
      "inputs": [
        {
          "internalType": "address",
          "name": "account",
          "type": "address"
        }
      ],
      "name": "OwnableUnauthorizedAccount",
      "type": "error"
    },
    {
      "anonymous": false,
      "inputs": [
        {
          "indexed": true,
          "internalType": "address",
          "name": "owner",
          "type": "address"
        },
        {
          "indexed": true,
          "internalType": "address",
          "name": "spender",
          "type": "address"
        },
        {
          "indexed": false,
          "internalType": "uint256",
          "name": "value",
          "type": "uint256"
        }
      ],
      "name": "Approval",
      "type": "event"
    },
    {
      "anonymous": false,
      "inputs": [
        {
          "indexed": true,
          "internalType": "address",
          "name": "account",
          "type": "address"
        }
      ],
      "name": "Blacklisted",
      "type": "event"
    },
    {
      "anonymous": false,
      "inputs": [
        {
          "indexed": true,
          "internalType": "address",
          "name": "previousOwner",
          "type": "address"
        },
        {
          "indexed": true,
          "internalType": "address",
          "name": "newOwner",
          "type": "address"
        }
      ],
      "name": "OwnershipTransferred",
      "type": "event"
    },
    {
      "anonymous": false,
      "inputs": [
        {
          "indexed": false,
          "internalType": "address",
          "name": "account",
          "type": "address"
        }
      ],
      "name": "Paused",
      "type": "event"
    },
    {
      "anonymous": false,
      "inputs": [
        {
          "indexed": true,
          "internalType": "address",
          "name": "user",
          "type": "address"
        },
        {
          "indexed": false,
          "internalType": "uint256",
          "name": "amount",
          "type": "uint256"
        },
        {
          "indexed": false,
          "internalType": "string",
          "name": "currency",
          "type": "string"
        }
      ],
      "name": "Redeemed",
      "type": "event"
    },
    {
      "anonymous": false,
      "inputs": [
        {
          "indexed": true,
          "internalType": "address",
          "name": "from",
          "type": "address"
        },
        {
          "indexed": true,
          "internalType": "address",
          "name": "to",
          "type": "address"
        },
        {
          "indexed": false,
          "internalType": "uint256",
          "name": "value",
          "type": "uint256"
        }
      ],
      "name": "Transfer",
      "type": "event"
    },
    {
      "anonymous": false,
      "inputs": [
        {
          "indexed": true,
          "internalType": "address",
          "name": "account",
          "type": "address"
        }
      ],
      "name": "Unblacklisted",
      "type": "event"
    },
    {
      "anonymous": false,
      "inputs": [
        {
          "indexed": false,
          "internalType": "address",
          "name": "account",
          "type": "address"
        }
      ],
      "name": "Unpaused",
      "type": "event"
    },
    {
      "inputs": [],
      "name": "MAX_SUPPLY",
      "outputs": [
        {
          "internalType": "uint256",
          "name": "",
          "type": "uint256"
        }
      ],
      "stateMutability": "view",
      "type": "function"
    },
    {
      "inputs": [
        {
          "internalType": "address",
          "name": "owner",
          "type": "address"
        },
        {
          "internalType": "address",
          "name": "spender",
          "type": "address"
        }
      ],
      "name": "allowance",
      "outputs": [
        {
          "internalType": "uint256",
          "name": "",
          "type": "uint256"
        }
      ],
      "stateMutability": "view",
      "type": "function"
    },
    {
      "inputs": [
        {
          "internalType": "address",
          "name": "spender",
          "type": "address"
        },
        {
          "internalType": "uint256",
          "name": "value",
          "type": "uint256"
        }
      ],
      "name": "approve",
      "outputs": [
        {
          "internalType": "bool",
          "name": "",
          "type": "bool"
        }
      ],
      "stateMutability": "nonpayable",
      "type": "function"
    },
    {
      "inputs": [
        {
          "internalType": "address",
          "name": "account",
          "type": "address"
        }
      ],
      "name": "balanceOf",
      "outputs": [
        {
          "internalType": "uint256",
          "name": "",
          "type": "uint256"
        }
      ],
      "stateMutability": "view",
      "type": "function"
    },
    {
      "inputs": [
        {
          "internalType": "address",
          "name": "account",
          "type": "address"
        }
      ],
      "name": "blacklist",
      "outputs": [],
      "stateMutability": "nonpayable",
      "type": "function"
    },
    {
      "inputs": [
        {
          "internalType": "address",
          "name": "",
          "type": "address"
        }
      ],
      "name": "blacklisted",
      "outputs": [
        {
          "internalType": "bool",
          "name": "",
          "type": "bool"
        }
      ],
      "stateMutability": "view",
      "type": "function"
    },
    {
      "inputs": [],
      "name": "decimals",
      "outputs": [
        {
          "internalType": "uint8",
          "name": "",
          "type": "uint8"
        }
      ],
      "stateMutability": "view",
      "type": "function"
    },
    {
      "inputs": [
        {
          "internalType": "address",
          "name": "to",
          "type": "address"
        },
        {
          "internalType": "uint256",
          "name": "amount",
          "type": "uint256"
        }
      ],
      "name": "mint",
      "outputs": [],
      "stateMutability": "nonpayable",
      "type": "function"
    },
    {
      "inputs": [],
      "name": "name",
      "outputs": [
        {
          "internalType": "string",
          "name": "",
          "type": "string"
        }
      ],
      "stateMutability": "view",
      "type": "function"
    },
    {
      "inputs": [],
      "name": "owner",
      "outputs": [
        {
          "internalType": "address",
          "name": "",
          "type": "address"
        }
      ],
      "stateMutability": "view",
      "type": "function"
    },
    {
      "inputs": [],
      "name": "pause",
      "outputs": [],
      "stateMutability": "nonpayable",
      "type": "function"
    },
    {
      "inputs": [],
      "name": "paused",
      "outputs": [
        {
          "internalType": "bool",
          "name": "",
          "type": "bool"
        }
      ],
      "stateMutability": "view",
      "type": "function"
    },
    {
      "inputs": [
        {
          "internalType": "uint256",
          "name": "amount",
          "type": "uint256"
        },
        {
          "internalType": "string",
          "name": "currency",
          "type": "string"
        }
      ],
      "name": "redeem",
      "outputs": [],
      "stateMutability": "nonpayable",
      "type": "function"
    },
    {
      "inputs": [],
      "name": "renounceOwnership",
      "outputs": [],
      "stateMutability": "nonpayable",
      "type": "function"
    },
    {
      "inputs": [],
      "name": "symbol",
      "outputs": [
        {
          "internalType": "string",
          "name": "",
          "type": "string"
        }
      ],
      "stateMutability": "view",
      "type": "function"
    },
    {
      "inputs": [],
      "name": "totalSupply",
      "outputs": [
        {
          "internalType": "uint256",
          "name": "",
          "type": "uint256"
        }
      ],
      "stateMutability": "view",
      "type": "function"
    },
    {
      "inputs": [
        {
          "internalType": "address",
          "name": "to",
          "type": "address"
        },
        {
          "internalType": "uint256",
          "name": "value",
          "type": "uint256"
        }
      ],
      "name": "transfer",
      "outputs": [
        {
          "internalType": "bool",
          "name": "",
          "type": "bool"
        }
      ],
      "stateMutability": "nonpayable",
      "type": "function"
    },
    {
      "inputs": [
        {
          "internalType": "address",
          "name": "from",
          "type": "address"
        },
        {
          "internalType": "address",
          "name": "to",
          "type": "address"
        },
        {
          "internalType": "uint256",
          "name": "value",
          "type": "uint256"
        }
      ],
      "name": "transferFrom",
      "outputs": [
        {
          "internalType": "bool",
          "name": "",
          "type": "bool"
        }
      ],
      "stateMutability": "nonpayable",
      "type": "function"
    },
    {
      "inputs": [
        {
          "internalType": "address",
          "name": "newOwner",
          "type": "address"
        }
      ],
      "name": "transferOwnership",
      "outputs": [],
      "stateMutability": "nonpayable",
      "type": "function"
    },
    {
      "inputs": [
        {
          "internalType": "address",
          "name": "account",
          "type": "address"
        }
      ],
      "name": "unblacklist",
      "outputs": [],
      "stateMutability": "nonpayable",
      "type": "function"
    },
    {
      "inputs": [],
      "name": "unpause",
      "outputs": [],
      "stateMutability": "nonpayable",
      "type": "function"
    }
  ],
  "bytecode": "0x60806040523480156200001157600080fd5b50336040518060400160405280600c81526020016b50656767656420555344763360a01b8152506040518060400160405280600681526020016550555344763360d01b815250816003908162000068919062000461565b50600462000077828262000461565b5050506001600160a01b038116620000aa57604051631e4fbdf760e01b8152600060048201526024015b60405180910390fd5b620000b581620000e4565b50620000de33620000c96006600a62000642565b620000d890620f42406200065a565b6200013e565b6200068a565b600580546001600160a01b03838116610100818102610100600160a81b031985161790945560405193909204169182907f8be0079c531659141344cd1fd0a4f28419497f9722a3daafe3b4186f6b6457e090600090a35050565b6001600160a01b0382166200016a5760405163ec442f0560e01b815260006004820152602401620000a1565b62000178600083836200017c565b5050565b6200018662000263565b6001600160a01b03831660009081526006602052604090205460ff1615620001e65760405162461bcd60e51b815260206004820152601260248201527114d95b99195c88189b1858dadb1a5cdd195960721b6044820152606401620000a1565b6001600160a01b03821660009081526006602052604090205460ff1615620002515760405162461bcd60e51b815260206004820152601560248201527f526563697069656e7420626c61636b6c697374656400000000000000000000006044820152606401620000a1565b6200025e8383836200028a565b505050565b60055460ff1615620002885760405163d93c066560e01b815260040160405180910390fd5b565b6001600160a01b038316620002b9578060026000828254620002ad919062000674565b909155506200032d9050565b6001600160a01b038316600090815260208190526040902054818110156200030e5760405163391434e360e21b81526001600160a01b03851660048201526024810182905260448101839052606401620000a1565b6001600160a01b03841660009081526020819052604090209082900390555b6001600160a01b0382166200034b576002805482900390556200036a565b6001600160a01b03821660009081526020819052604090208054820190555b816001600160a01b0316836001600160a01b03167fddf252ad1be2c89b69c2b068fc378daa952ba7f163c4a11628f55a4df523b3ef83604051620003b091815260200190565b60405180910390a3505050565b634e487b7160e01b600052604160045260246000fd5b600181811c90821680620003e857607f821691505b6020821081036200040957634e487b7160e01b600052602260045260246000fd5b50919050565b601f8211156200025e57600081815260208120601f850160051c81016020861015620004385750805b601f850160051c820191505b81811015620004595782815560010162000444565b505050505050565b81516001600160401b038111156200047d576200047d620003bd565b62000495816200048e8454620003d3565b846200040f565b602080601f831160018114620004cd5760008415620004b45750858301515b600019600386901b1c1916600185901b17855562000459565b600085815260208120601f198616915b82811015620004fe57888601518255948401946001909101908401620004dd565b50858210156200051d5787850151600019600388901b60f8161c191681555b5050505050600190811b01905550565b634e487b7160e01b600052601160045260246000fd5b600181815b80851115620005845781600019048211156200056857620005686200052d565b808516156200057657918102915b93841c939080029062000548565b509250929050565b6000826200059d575060016200063c565b81620005ac575060006200063c565b8160018114620005c55760028114620005d057620005f0565b60019150506200063c565b60ff841115620005e457620005e46200052d565b50506001821b6200063c565b5060208310610133831016604e8410600b841016171562000615575081810a6200063c565b62000621838362000543565b80600019048211156200063857620006386200052d565b0290505b92915050565b60006200065360ff8416836200058c565b9392505050565b80820281158282048414176200063c576200063c6200052d565b808201808211156200063c576200063c6200052d565b610f1f806200069a6000396000f3fe608060405234801561001057600080fd5b50600436106101375760003560e01c806370a08231116100b857806395d89b411161007c57806395d89b411461026e578063a9059cbb14610276578063dbac26e914610289578063dd62ed3e146102ac578063f2fde38b146102e5578063f9f92be4146102f857600080fd5b806370a08231146101f9578063715018a61461022257806375e3661e1461022a5780638456cb591461023d5780638da5cb5b1461024557600080fd5b8063313ce567116100ff578063313ce567146101b757806332cb6b0c146101c65780633f4ba83a146101d357806340c10f19146101db5780635c975abb146101ee57600080fd5b806306fdde031461013c578063095ea7b31461015a57806318160ddd1461017d57806323b872dd1461018f57806324b76fd5146101a2575b600080fd5b61014461030b565b6040516101519190610cb2565b60405180910390f35b61016d610168366004610ce8565b61039d565b6040519015158152602001610151565b6002545b604051908152602001610151565b61016d61019d366004610d12565b6103b7565b6101b56101b0366004610d64565b6103db565b005b60405160068152602001610151565b610181655af3107a400081565b6101b561048e565b6101b56101e9366004610ce8565b6104a0565b60055460ff1661016d565b610181610207366004610e1f565b6001600160a01b031660009081526020819052604090205490565b6101b5610575565b6101b5610238366004610e1f565b610587565b6101b56105d8565b60055461010090046001600160a01b03166040516001600160a01b039091168152602001610151565b6101446105e8565b61016d610284366004610ce8565b6105f7565b61016d610297366004610e1f565b60066020526000908152604090205460ff1681565b6101816102ba366004610e3a565b6001600160a01b03918216600090815260016020908152604080832093909416825291909152205490565b6101b56102f3366004610e1f565b610605565b6101b5610306366004610e1f565b610643565b60606003805461031a90610e6d565b80601f016020809104026020016040519081016040528092919081815260200182805461034690610e6d565b80156103935780601f1061036857610100808354040283529160200191610393565b820191906000526020600020905b81548152906001019060200180831161037657829003601f168201915b5050505050905090565b6000336103ab8185856106dc565b60019150505b92915050565b6000336103c58582856106ee565b6103d085858561076d565b506001949350505050565b6103e36107cc565b3360009081526006602052604090205460ff161561043d5760405162461bcd60e51b815260206004820152601260248201527114d95b99195c88189b1858dadb1a5cdd195960721b60448201526064015b60405180910390fd5b61044733836107f0565b336001600160a01b03167f784e131f41825c0f4dedaf1b303cfd417f3603b2e95ed4a0c0bdc2176dbbc3ee8383604051610482929190610ea7565b60405180910390a25050565b610496610826565b61049e610859565b565b6104a8610826565b6001600160a01b03821660009081526006602052604090205460ff16156105095760405162461bcd60e51b8152602060048201526015602482015274149958da5c1a595b9d08189b1858dadb1a5cdd1959605a1b6044820152606401610434565b655af3107a40008161051a60025490565b6105249190610ec8565b11156105675760405162461bcd60e51b815260206004820152601260248201527145786365656473206d617820737570706c7960701b6044820152606401610434565b61057182826108ab565b5050565b61057d610826565b61049e60006108e1565b61058f610826565b6001600160a01b038116600081815260066020526040808220805460ff19169055517f7534c63860313c46c473e4e98328f37017e9674e2162faf1a3ad7a96236c3b7b9190a250565b6105e0610826565b61049e61093b565b60606004805461031a90610e6d565b6000336103ab81858561076d565b61060d610826565b6001600160a01b03811661063757604051631e4fbdf760e01b815260006004820152602401610434565b610640816108e1565b50565b61064b610826565b6001600160a01b0381166106905760405162461bcd60e51b815260206004820152600c60248201526b5a65726f206164647265737360a01b6044820152606401610434565b6001600160a01b038116600081815260066020526040808220805460ff19166001179055517fffa4e6181777692565cf28528fc88fd1516ea86b56da075235fa575af6a4b8559190a250565b6106e98383836001610978565b505050565b6001600160a01b03838116600090815260016020908152604080832093861683529290522054600019811015610767578181101561075857604051637dc7a0d960e11b81526001600160a01b03841660048201526024810182905260448101839052606401610434565b61076784848484036000610978565b50505050565b6001600160a01b03831661079757604051634b637e8f60e11b815260006004820152602401610434565b6001600160a01b0382166107c15760405163ec442f0560e01b815260006004820152602401610434565b6106e9838383610a4d565b60055460ff161561049e5760405163d93c066560e01b815260040160405180910390fd5b6001600160a01b03821661081a57604051634b637e8f60e11b815260006004820152602401610434565b61057182600083610a4d565b6005546001600160a01b0361010090910416331461049e5760405163118cdaa760e01b8152336004820152602401610434565b610861610b1f565b6005805460ff191690557f5db9ee0a495bf2e6ff9c91a7834c1ba4fdd244a5e8aa4e537bd38aeae4b073aa335b6040516001600160a01b03909116815260200160405180910390a1565b6001600160a01b0382166108d55760405163ec442f0560e01b815260006004820152602401610434565b61057160008383610a4d565b600580546001600160a01b03838116610100818102610100600160a81b031985161790945560405193909204169182907f8be0079c531659141344cd1fd0a4f28419497f9722a3daafe3b4186f6b6457e090600090a35050565b6109436107cc565b6005805460ff191660011790557f62e78cea01bee320cd4e420270b5ea74000d11b0c9f74754ebdbfc544b05a25861088e3390565b6001600160a01b0384166109a25760405163e602df0560e01b815260006004820152602401610434565b6001600160a01b0383166109cc57604051634a1406b160e11b815260006004820152602401610434565b6001600160a01b038085166000908152600160209081526040808320938716835292905220829055801561076757826001600160a01b0316846001600160a01b03167f8c5be1e5ebec7d5bd14f71427d1e84f3dd0314c0f7b2291e5b200ac8c7c3b92584604051610a3f91815260200190565b60405180910390a350505050565b610a556107cc565b6001600160a01b03831660009081526006602052604090205460ff1615610ab35760405162461bcd60e51b815260206004820152601260248201527114d95b99195c88189b1858dadb1a5cdd195960721b6044820152606401610434565b6001600160a01b03821660009081526006602052604090205460ff1615610b145760405162461bcd60e51b8152602060048201526015602482015274149958da5c1a595b9d08189b1858dadb1a5cdd1959605a1b6044820152606401610434565b6106e9838383610b42565b60055460ff1661049e57604051638dfc202b60e01b815260040160405180910390fd5b6001600160a01b038316610b6d578060026000828254610b629190610ec8565b90915550610bdf9050565b6001600160a01b03831660009081526020819052604090205481811015610bc05760405163391434e360e21b81526001600160a01b03851660048201526024810182905260448101839052606401610434565b6001600160a01b03841660009081526020819052604090209082900390555b6001600160a01b038216610bfb57600280548290039055610c1a565b6001600160a01b03821660009081526020819052604090208054820190555b816001600160a01b0316836001600160a01b03167fddf252ad1be2c89b69c2b068fc378daa952ba7f163c4a11628f55a4df523b3ef83604051610c5f91815260200190565b60405180910390a3505050565b6000815180845260005b81811015610c9257602081850181015186830182015201610c76565b506000602082860101526020601f19601f83011685010191505092915050565b602081526000610cc56020830184610c6c565b9392505050565b80356001600160a01b0381168114610ce357600080fd5b919050565b60008060408385031215610cfb57600080fd5b610d0483610ccc565b946020939093013593505050565b600080600060608486031215610d2757600080fd5b610d3084610ccc565b9250610d3e60208501610ccc565b9150604084013590509250925092565b634e487b7160e01b600052604160045260246000fd5b60008060408385031215610d7757600080fd5b82359150602083013567ffffffffffffffff80821115610d9657600080fd5b818501915085601f830112610daa57600080fd5b813581811115610dbc57610dbc610d4e565b604051601f8201601f19908116603f01168101908382118183101715610de457610de4610d4e565b81604052828152886020848701011115610dfd57600080fd5b8260208601602083013760006020848301015280955050505050509250929050565b600060208284031215610e3157600080fd5b610cc582610ccc565b60008060408385031215610e4d57600080fd5b610e5683610ccc565b9150610e6460208401610ccc565b90509250929050565b600181811c90821680610e8157607f821691505b602082108103610ea157634e487b7160e01b600052602260045260246000fd5b50919050565b828152604060208201526000610ec06040830184610c6c565b949350505050565b808201808211156103b157634e487b7160e01b600052601160045260246000fdfea264697066735822122090dee7e221202eb4a1acde6cc8d72b6046f25de78c4b95dbcbce6ba57c98112a64736f6c63430008140033",
  "linkReferences": {},
  "deployedLinkReferences": {}
}